:020000040800F2
:10000000B00D00205D0200089D2E0008192B00088D
:10001000992E0008ED060008A53700080000000032
:10002000000000000000000000000000A52E0008F5
:100030003908000800000000A12E0008A92E0008C1
:1000400077020008770200087702000877020008AC
:10005000770200087702000877020008770200089C
:10006000770200087702000877020008770200088C
:10007000770200087702000877020008770200087C
:100080007702000877020008BD0600087702000822
:10009000770200087702000877020008770200085C
:1000A000770200087702000877020008770200084C
:1000B000770200087702000877020008770200083C
:1000C000770200087702000877020008770200082C
:1000D000770200087702000877020008770200081C
:1000E000770200087702000877020008770200080C
:1000F00077020008770200087702000877020008FC
:1001000077020008770200087702000877020008EB
:1001100077020008770200087702000877020008DB
:10012000F10600087702000877020008770200084D
:1001300077020008770200087702000877020008BB
:1001400077020008770200087702000877020008AB
:10015000770200087702000877020008770200089B
:10016000770200087702000877020008770200088B
:1001700077020008770200087702000800000000FC
:10018000770200087702000800F002F800F057F844
:1001900014A696E8000CB244B344DA4501D100F04D
:1001A0004EF8BAE80F000FA696E83000A5EB04055C
:1001B00004EB0607AAEB0704A7F101074FEA1515A0
:1001C0004FEA3414A4F10104AC4201D300F037F833
:1001D00013F0010F18BFFB1A43F0010300F001F800
:1001E000DBE71847EC3700000C380000103A24BF5A
:1001F00078C878C1FAD8520724BF30C830C144BF8C
:1002000004680C6070470000704700000023002461
:1002100000250026103A28BF78C1FBD8520728BF16
:1002200030C148BF0B607047642900F0F1800020A6
:1002300070471FB503F088FB1FBD10B510BD00F05F
:10024000C5F91146FFF7F5FF03F0C4FA00F0E3F932
:1002500003B4FFF7F2FF03BC03F0A6FA0948804796
:1002600009480047FEE7FEE7FEE7FEE7FEE7FEE798
:10027000FEE7FEE7FEE7FEE704480549054A064BB0
:10028000704700005D2F000889010008B0070020BA
:10029000B00D0020B0090020B0090020704753EADB
:1002A000020C00F069802DE9F04B4FF00006002BA6
:1002B0001FBFB3FA83F503FA05F424FA05F65E408E
:1002C00012BF1643B2FA82F502FA05F4C5F1200511
:1002D0001EBF22FA05FC44EA0C04203556EA044C01
:1002E0004FEA144418BF641C4FF000084FF0000997
:1002F000904271EB030C39D3002919BFB1FA81F791
:1003000001FA07F6B0FA80F700FA07F6C7F12007FE
:100310001EBF20FA07FC46EA0C062037B6FBF4FCA9
:10032000A7EB0507103F07F01F0BCBF120062CFAB7
:1003300006F60CFA0BFB44BFB3460026202FA4BFE1
:100340005E464FF0000B5BEA060C08BF4FF0010B56
:1003500019EB0B0948EB0608ABFB027C06FB02CC51
:100360000BFB03CCC01B71EB0C01C1E70B46024633
:1003700041464846BDE8F08B13B5084318BF4FF01F
:10038000FF300146AFF30080BDE81C40704700001D
:100390000FB4044910B503AA029800F0E9F810BCA4
:1003A0005DF814FB700000202DE9F0410E46044674
:1003B000002020622046E168884730B3252805D018
:1003C000D4E901219047206A401CF2E7E168204609
:1003D00000278847050018D0A5F14100192802D848
:1003E00020354FF400673246294620462760FFF744
:1003F0001BFF40B1012804D0F61D26F00706083681
:10040000D8E7361DD6E72846DAE7206ABDE8F0814E
:100410002DE9F0410646002410687529314616A5DD
:1004200010D0AFF30080002802DA404213A507E0A5
:1004300031688A0701D512A502E0490704D511A544
:10044000012401E0AFF3008000210A2206F1240715
:1004500009E0B0FBF2FCB0FBF2F302FB1C00303011
:1004600078541846491C0028F3D123462A463046C2
:10047000BDE8F04100F022B8000000002D000000AF
:100480002B0000002000000010B5044603E003F03C
:100490008DF9401C09D014F8010B05490028F6D14C
:1004A000BDE810400A2003F081B94FF0FF3010BDC5
:1004B0007000002070477047704770472DE9F04783
:1004C0000D4699469246044600F1240801688806C4
:1004D00004D5E06921F01001216000E00120A8426C
:1004E00001DD471B00E00027A1697A1902EB090032
:1004F000081AA0612078C00602D42046AFF300801D
:10050000002608E0D4E901211AF806009047206A85
:10051000401C761C20624E45F4DB2078C0060AD5CC
:100520002046AFF3008006E0D4E901213020904757
:10053000206A401C2062381EA7F10107F4DC07E0A6
:10054000D4E9012118F805009047206A401C206278
:10055000281EA5F10105F3DC2046AFF300802078CA
:10056000000602D50220BDE8F0870120FBE700006D
:10057000074B70B50D467B4400F011F80446284641
:1005800000F020F810B14FF0FF3070BD204670BD74
:100590003332000001694A1C02610878704700B5D7
:1005A0008FB0CDE901310021059105497944CDE9AC
:1005B000031011466846FFF7F7FE0FB000BD0000BC
:1005C000E5FFFFFF007B00F080007047754600F0FC
:1005D0002BF8AE4605006946534620F007008546D5
:1005E00018B020B5FFF748FEBDE820404FF00006E8
:1005F0004FF000074FF000084FF0000BAC46ACE89E
:10060000C009ACE8C009ACE8C009ACE8C00921F0F9
:1006100007018D46704710B50446AFF300802046B1
:10062000BDE81040FFF714BE0048704710000020DE
:100630000146806B036C026C13F0500F08D0D20699
:1006400048BF00F0ABB9806BC26C0846104700BFD2
:1006500042F40071016401688A6812F0405F01D0C1
:1006600000F098B9027E002AFAD1CA6A12F4700F1B
:1006700002D08A685205F3D44A6822F020024A6008
:10068000016C21F480710164016CC90448BF00F061
:1006900081B9016C41F00101016400F07BB90000F7
:1006A000806B40210164416C41F00401416400F021
:1006B00075B90000806B00F06FB9000080B505A02F
:1006C000FFF7E2FE40F2C840C2F20000BDE8804001
:1006D00000F066B94144435F49525148616E646C11
:1006E00065722052554E200D00000000FEE700000C
:1006F00070B546F2584546F2004442A0C4F20205E5
:10070000C4F20204FFF7C0FE43F6BA10C0F60000C0
:10071000FFF7BAFE2068C0F3401143F68210C0F61E
:100720000000FFF735FE2068C0F3001143F6AF105C
:10073000C0F60000FFF72CFE2068C0F3C00143F6AE
:10074000A410C0F60000FFF723FE2068C0F380016C
:1007500043F69810C0F60000FFF71AFE206800F07C
:10076000010143F68D10C0F60000FFF711FE40F2C4
:100770001056C2F200063068A84203D955F8540C4E
:1007800011E000BFA4F55271884201D920680AE047
:10079000A4F56A71884294BF4FF600404FF60440BA
:1007A000CFF6FF702058800658BF70BD1BA0FFF722
:1007B0006BFE3068A84203D9202045F84C0C13E0AA
:1007C000A4F55271884203D9202045F8500C0BE063
:1007D000A4F56A71884294BF4FF608404FF60C406A
:1007E000CFF6FF702021215040F2C441C2F2000137
:1007F000012240F2C840C2F200000A70BDE8704019
:1008000000F0CCBB444D415F49525148616E646C6D
:1008100065722052554E200D000000005472616E2A
:100820007366657220436F6D706C65746520466CED
:100830006167205365740D0070470000EFF310806E
:1008400072B600BFFEE700007047000070B581B0CF
:100850000022009290F83C20012A03D10221084690
:1008600001B070BD0E6801220A2E80F83C2009D329
:10087000B2B25200D0F800E012FA86F21E3A0EF13F
:100880000C0305E0D0F800E006EB46020EF1100381
:100890004FF0070C1D680CFA02F4A5431D608D682B
:1008A0001C6805FA02F222431A60496806290FD82B
:1008B00001EB81014A1F71461F2351F8345F9340B9
:1008C00025EA03030B60B3B203FA02F214E000BF9F
:1008D00001EB81030C29B2B204D8714651F8304FB4
:1008E000233B03E0714651F82C4F413B1F259D40AF
:1008F00024EA05059A400D600B6842F2043CC4F2FC
:10090000010C1A43ACF541739E450A603BD1122E8F
:1009100006D1DCF8001041F48001CCF8001032E080
:1009200026F0010110292ED1DCF80010102E41F420
:100930000001CCF8001026D140F20C01C2F20001F7
:1009400009684DF68362C4F21B32A1FB0212910CBE
:1009500001EB8101490000910099A1B10099013991
:100960000091009979B1009901390091009951B134
:10097000009901390091009929B10099013900913C
:1009800000990029EAD1002180F83C10084601B006
:1009900070BD000070470000704700007047000005
:1009A00070B50446006806684568B10717D515F0AC
:1009B000200114D0216CC90603D4216C41F40071CC
:1009C0002164816811F0405F02D1217E002969D045
:1009D0002046FFF7DFFF20686FF01201016071070A
:1009E00014D515F0800111D0216CC90603D4216CF7
:1009F00041F400512164816811F4401F22D0204647
:100A0000FFF722FF20686FF00C010160F10706D0AC
:100A100015F040011CBF01685FEAC17134D1B10615
:100A20000FD515F0806108BF70BD616C6FF02005B7
:100A300041F00201616405602046FFF7AFFF2068C6
:100A4000056070BD816B11F4401F02D081684905BB
:100A5000D5D441684905D2D4816811F0405FCED128
:100A6000217E0029CBD1416821F080014160206CBA
:100A700020F480502064206CC005C0D4206C40F06D
:100A800001002064BBE700BF206C40F4803020648C
:100A9000204600F0D1F820686FF001010160B10636
:100AA000BFD4CEE7C16A11F4700F03D08168490545
:100AB0003FF58EAF416821F020014160206C20F4A9
:100AC00080702064206CC0043FF582AF206C40F041
:100AD000010020647CE70000002804BF012070476B
:100AE00010B50446006C00283ED0206CC00645D4EA
:100AF000206C41F202118843023042F2043120643A
:100B0000C4F20101086820F4403008600A6894E8E3
:100B100009101A43D4F810E00A604168012321F457
:100B2000807141604168C0F6007341EA0E21416066
:100B3000416821F040714160416841EA0C01416027
:100B4000816821F400618160E168826811438160FD
:100B5000A16A8268994222F070628260826813D131
:100B600022F0405119E000BF204600F067F8002055
:100B7000606484F83C00206CC006B9D501200021D7
:100B800084F83C1010BD00BF11438160816821F0E2
:100B900040518160E16A826811438160816821F07F
:100BA000020181608168227E94F8203041EA42018E
:100BB0008160416883B141F40061416041684EF257
:100BC000000221F460414160616ACFF6FF72436820
:100BD00002EB4131194301E021F400614160C16A37
:100BE00040F2000C21F47001C162E2696169CFF644
:100BF000F07CC36A0CEB02521A43C262826822F490
:100C00000072826094F83020836843EA4222826056
:100C1000826822F480628260826842EA8121816077
:100C200000206064216C012262F301012164002133
:100C300084F83C1010BD00007047000080B586B0FD
:100C400042F200010068C4F20101002288420592CC
:100C5000049201D006B080BD43F630000092C4F289
:100C60000200436943F480734361436903F4807372
:100C70000093009B0092036843F002030360006846
:100C800000F0020000900098012001900320CDE9BF
:100C9000020201F5644001A900F004FB06B080BD2A
:100CA00010B581B00021009190F83C10012903D1CA
:100CB000022001B010BD00BF0468012180F83C1083
:100CC000214651F8083FDB0729D10B684DF68362B6
:100CD00043F001030B6040F20C03C2F200031B68F7
:100CE000C4F21B32A3FB02239A0C02EB42020092D5
:100CF000009AA2B1009A013A0092009A7AB1009A41
:100D0000013A0092009A52B1009A013A0092009A78
:100D10002AB1009A013A0092009A002AEAD10A68A0
:100D2000036CD2070CD143F01001016400F14401BF
:100D300001200A6810430860002001B010BD00BF08
:100D400040F2017223EA020202F5807202646268D4
:100D5000520504D5026C012363F30D320264026C68
:100D60004FF0000E0023D20444BF426C22F0060371
:100D700042F2043C436480F83CE06FF02200C4F28D
:100D8000010C2060DCF80000C0060DD0ACF541700D
:100D900084422BD14FF60450CFF6FF705CF8000070
:100DA00010F0405F22D125E042F20000C4F20100C1
:100DB000844217D042F20020C4F2010084420DD0D8
:100DC00042F20010C4F2010084420FD1DCF80000AE
:100DD000C00607D0ACF58270844207D1DCF8000071
:100DE000C00603D4086810F0405F03D0002001B0B3
:100DF00010BD00BF4FF080409BE70000B0B582B04F
:100E000004460020019094F83C00012802D1022001
:100E100002B0B0BD94460A460120216884F83C0027
:100E20008868C00729D188684DF6836540F00100C5
:100E3000886040F20C00C2F200000068C4F21B356A
:100E4000A0FB0505A80C00EB400001900198A0B1A3
:100E5000019801380190019878B10198013801900A
:100E6000019850B1019801380190019828B101987A
:100E70000138019001980028EAD18868C00503D59F
:100E8000886820F4807088608D68206CED0709D137
:100E900040F010002064606C40F0010060640020AD
:100EA00002B0B0BD40F20175A84300F58070206427
:100EB0004868400504D5206C012565F30D30206499
:100EC000256C0020ED044FF0000544BF656C25F053
:100ED0000605656484F83C00A06B40F2316540F281
:100EE000B563C0F60005C0F60003C0E90F5340F239
:100EF000A163C0F60003C3646FF022030B604B686C
:100F000042F2080543F080634B608B68C4F2010530
:100F100043F480738B604C31634600F071F9D5F86F
:100F2000FC122068C9060FD0A5F108018842B6D18D
:100F3000286810F0405FB2D1286840F080402860F7
:100F4000002002B0B0BD00BF42F20001C4F20101B6
:100F5000884217D042F20021C4F2010188420DD02C
:100F600042F20011C4F20101884298D1D5F8FC1276
:100F7000C90607D005F5FC71884290D1D5F8FC125E
:100F8000C9068CD4816811F0405F7FF488AF816816
:100F900041F080418160002002B0B0BDB0B5044690
:100FA00090F83C00012804BF0220B0BD0120216858
:100FB00084F83C008868002520F00100886088687B
:100FC000C0074FF000001DD1886820F48070886051
:100FD000A06B90F83510022908D100F017F828B15D
:100FE000216C41F04001216401E000BF0020216834
:100FF0004A6822F080624A60216C41F201129143FA
:101000000131216484F83C50B0BD000070B5866D9C
:10101000044600F01DFA94F83510022928D105463F
:101020002068216C026822F016020260426922F0F8
:101030008002426109B9A16C19B1016821F008016F
:101040000160016821F00101016000BF20680068B3
:10105000C00715D000F0FCF9401B0628F6D320206D
:101060006065032084F83500002184F8341070BDD9
:10107000802060650120002184F8341070BD00BF1D
:10108000E06D3F2101FA00F0B060012084F83500E6
:101090000020002184F8341070BD00002DE9F041DB
:1010A000044600F0D5F9ECB10546022084F835007D
:1010B0000020216884F83400086820F001000860EE
:1010C00021680868C00711D000F0C2F9401B05284C
:1010D000F6D9032520230320636584F83550BDE845
:1010E000F08100BF0120BDE8F08100BF086848F230
:1010F0003F02CFF21002D4E9013500EA020C04F1FC
:101100000C0898E8C10143EA0C032B431843D4E9C7
:10111000072E304338431043626A40EA0E00042A27
:1011200040EA08031CD1206BD4E90A2E40EA0E00E5
:10113000184308604869BEF1000F20F0030040EA40
:10114000020040F0040C11D0B8F5005F36D0B8F1C1
:10115000000F45D1022A46D0012A3BD032B942E0E5
:101160000B60486920F0070040EA020C01F0F8002B
:101170004AF6AB221038CAF6AA22A0FB02231A09AB
:1011800043F67A13C1F814C0C0F600039A5C40F22B
:10119000FF335F284FF03F0021EA030100FA02F01D
:1011A00088BF0431C4E9161288600023012500209D
:1011B000636584F83550BDE8F08100BF032AD5D8B7
:1011C000012540230120DFE802F0030E030500BFE4
:1011D00082E700BFAEF1C070B0FA80F0400904E0D1
:1011E000032A04D3C2D1CEF300600028BED001256B
:1011F00040230120636584F83550BDE8F08100008C
:1012000090F834C0BCF1010F04BF0220704770B5E4
:101210004FF0010C80F834C0D0F858E090F835C099
:10122000BCF1010F38D14FF0020C80F835C04FF0FF
:10123000000CC0F854C0D0F800C08468056CC06DC4
:10124000DCF80060402C26F48026CCF80060CCF856
:1012500004300B4604BF13460A463F2101FA00F052
:10126000CCF80830CCF80C20CEF80800DCF80000F0
:1012700040F01600CCF800002DB1DCF8000040F082
:101280000800CCF80000DCF8000040F00100CCF8C9
:101290000000002070BD00BF002180F83410022043
:1012A00070BD00002DE9F04F82B000F13E4707F11C
:1012B000FF77860546EA972741F60046C4F2020604
:1012C000082243F6004EB04208BF0722C4F2010EC6
:1012D000072F38BF3A46002600274FF0000800923B
:1012E00009E000BF08F101080237B8F1100F06F15C
:1012F000040600F0A3800D68012202FA08F415EA42
:101300000409EFD0D1F804B003220BF0030CACF1C8
:101310000105BA40012D6FEA020A0FD88268CD6834
:1013200002EA0A02BD402A4382604268A243CBF32C
:10133000001404FA08F42243426005E0BCF1030FF4
:1013400002D14FF0030C1EE0C2688C6802EA0A0268
:10135000BC402243BCF1020FC26014D16FF0030203
:1013600002EA58020244D2F820C006F01C040F23FF
:101370000D69A3402CEA0303A5402B431362D1F867
:1013800004B00BF0030C02680CFA07F302EA0A023D
:101390001A431BF4403F0260A4D0002243F64403EA
:1013A0000192C4F202031A684FF6084C42F48042DC
:1013B0001A601A68CFF6FF7C02F480420192019A0B
:1013C00028F00302724452F80C3006F00C050F248A
:1013D000AC40A343009C04FA05F52B4342F80C30C3
:1013E000DEF808204B6842EA090543F60C4CDC02A3
:1013F00058BF22EA0905CEF80850C4F2010CDCF807
:1014000000209C0242EA090558BF22EA0905CCF8EF
:101410000050DEF804209C0342EA090558BF22EA86
:101420000905CEF80450DEF80020DB0342EA090586
:1014300058BF22EA0905CEF8005053E702B0BDE8D4
:10144000F08F0000002A08BF090481617047000086
:1014500040F2AC70C2F200000068704740F2040035
:1014600040F2AC71C2F20000C2F2000100780A68DA
:10147000104408607047000080B543F60040C4F295
:101480000200016841F400710160016841F480616B
:101490000160016841F480710160032000F086F86A
:1014A0000F2000F005F800F027F8002080BD0000B4
:1014B00070B540F20406C2F2000640F20C01327828
:1014C000C2F200014FF47A730968B3FBF2F20446EA
:1014D000B1FBF2F1084600F061FB0F2C4FF0010563
:1014E00008D838B94FF0FF3021460022002500F01F
:1014F00031F87460284670BD82B0002043F6400188
:101500000190C4F202014A6842F480424A604A688B
:1015100002F480420192019A0090086840F08050E5
:101520000860086800F080500090009802B0704792
:10153000002848BF704700F01F01012202FA01F1A4
:101540001C2202EAD0004EF20012CEF200028150BC
:101550007047000010B54EF60C5CCEF2000CDCF8C3
:101560000030C3F3022E8EF00704042C28BF04249D
:10157000BEF103034FF0FF3E0EFA04F438BF002320
:10158000A14399400EFA03F39A43114300F00F026E
:1015900000F160430901043A03F564436244002802
:1015A00048BF02F10C03197010BD00004EF60C513B
:1015B000CEF200010A684FF6FF031A4060F30A22D8
:1015C00042F0806040F0FD7008607047002804BF62
:1015D000012070472DE9F04143F60808C4F20208E3
:1015E0000446D8F8F8030D4600F00700884207D2F9
:1015F00088F8F853D8F8F80300F00700A84277D12C
:101600002068810717D5410705D5D8F8001041F4A7
:10161000E051C8F80010010705D5D8F8001041F4D2
:101620006041C8F80010D8F80010A26821F0F0015D
:101630001143C8F80010C00740D1D8F8F80300F0F3
:101640000700A84207D988F8F853D8F8F80300F043
:101650000700A8424CD12068410707D5D8F80010F0
:10166000E26821F4E0511143C8F80010000708D5E2
:10167000D8F80000216920F4604040EAC100C8F8B1
:10168000000000F07DF8D8F8001043F66212C1F3B4
:101690000311C0F60002515C40F20C0220FA01F185
:1016A00040F20800C2F200000068C2F200021160BD
:1016B000FFF7FEFE0020BDE8F08100BF6068811EDC
:1016C000022907D258F8081C89015CBF0120BDE837
:1016D000F08111E0012807D158F8081C89035CBF8C
:1016E0000120BDE8F08107E058F8081C890703D401
:1016F0000120BDE8F08100BFD8F8001021F00301FF
:101700000843C8F80000FFF7A3FE064641F28837F9
:10171000D8F80000616800F00C00B0EB810F8CD0AD
:10172000FFF796FE801BB842F2D90320BDE8F08196
:1017300040F20C0043F60801C2F20000C4F20201BC
:101740000068096843F67212C1F38221C0F60002F4
:10175000515CC8407047000040F20C0043F608019D
:10176000C2F20000C4F202010068096843F6721276
:10177000C1F34231C0F60002515CC840704700001E
:1017800010B543F60404C4F20204606800F00C01D2
:1017900042F200400829C0F2F40007D0042918BF23
:1017A00010BD41F20020C0F27A0010BD216801F0A6
:1017B0003F02216823684902C3F3881106D4A1FBC4
:1017C00000010023FEF76BFD07E000BF41F200209F
:1017D000C0F27A004843B0FBF2F021680222C1F364
:1017E000014102EB4101B0FBF1F010BD002804BF44
:1017F000012070472DE9F04182B00446007843F69D
:101800000006C007C4F202060CD0B06800F00C005D
:10181000042840F081803068800303D56068002888
:1018200000F06A81207880071BD5B06810F00C0F9B
:1018300009D0B06800F00C00082840F0878070687C
:10184000400200F183803068800703D5E0680128FA
:1018500040F052813068216920F0F80040EAC10070
:1018600030602078000713D4207840072AD4A56977
:10187000002D00F03C81B06800F00C00082840F01A
:10188000A180012D40F01081012002B0BDE8F0815F
:101890006069002840F20000C4F2472000F07E801A
:1018A0000121C0F8801EFFF7D3FD0546706F800749
:1018B000DAD4FFF7CDFD401B0228F7D9032002B090
:1018C000BDE8F081306C5FEAC0080AD400200190C6
:1018D000306C40F080503064306C00F080500190EB
:1018E000019847F20007C4F200073868C00547D4E2
:1018F000386840F480703860FFF7AAFD054600BFE5
:101900003868C0053CD4FFF7A3FD401B0228F7D977
:10191000032002B0BDE8F081B06800F00C00082898
:1019200003D1706840023FF576AF6068B0F5803F44
:1019300007D0B0F5A02F40F09B80306840F48020A5
:101940003060306840F4803030609BE0E068002810
:101950005CD00020C4F2472001210160FFF778FD30
:10196000054600BF306880073FF574AFFFF770FD94
:10197000401B0228F6D9032002B0BDE8F08100BF69
:10198000A068012805D0052854D1306F40F004002C
:101990003067306F40F00100306755E00021C0F83B
:1019A000801EFFF755FD0546706F80077FF55CAF21
:1019B000FFF74EFD401B0228F6D9032002B0BDE818
:1019C000F08100BF0027C4F2472700203866FFF7E8
:1019D0003FFD022D05460DD13068800140F1908019
:1019E000FFF736FD401B02284FF00300F4D902B088
:1019F000BDE8F0813068800179D5FFF729FD401BF3
:101A000002284FF00300F5D9F1E700BF0020C4F22F
:101A1000472000210160FFF71BFD05463068800765
:101A20007FF51FAFFFF714FD401B02284FF00300A6
:101A3000F4D9DCE7316F002821F001013167316F03
:101A400021F0040131677DD0FFF702FD054641F228
:101A5000883700BF306F800700F18680FFF7F8FC01
:101A6000401BB842F6D9032002B0BDE8F08100BFA8
:101A70003168002821F480313160316821F48021FF
:101A800031607BD0FFF7E4FC054600BF306880037F
:101A90003FF5C8AEFFF7DCFC401B6428F6D90320F5
:101AA00002B0BDE8F08100BF7068E16900F4800217
:101AB0008A4221D1216A00F03F028A421CD147F6B6
:101AC000C071626A0140B1EB821F15D1A16A4FF665
:101AD000FF73C903994300F44032A1F580318A4273
:101AE0000AD1E16A00F07060B0EB016F04D1002010
:101AF00002B0BDE8F08100BF012002B0BDE8F08176
:101B000004F11C052FCD084340EA8210D9034FF69B
:101B1000FF729143A1F5803140EA0560084370608F
:101B200001203866FFF794FC044600BF306880014E
:101B3000DDD4FFF78DFC001B02284FF00300F5D920
:101B400055E700BFFFF784FC054641F2883700BF28
:101B5000306F800708D5FFF77BFC401BB8424FF081
:101B60000300F5D943E700BFB8F1000F3FF57FAEA2
:101B7000306C20F08050306479E600BFFFF768FCDD
:101B8000054600BF306880037FF54CAEFFF760FC70
:101B9000401B64284FF00300F4D928E7411E0020C1
:101BA000B0EB116F1CBF012070474EF21002CEF255
:101BB000000251604EF62351CEF20001F0230B706B
:101BC000072190601160704790F83C20012A4FF087
:101BD000020254D010B580F83D200268D2F804E02B
:101BE000D2F808C00C682EF07003234341F2FF7452
:101BF000C4F20004A24253600EDC40F2FF73C4F250
:101C000000039A4216DCB2F1804F2BD040F2004321
:101C1000C4F2000324E000BF40F2FF33C4F201032A
:101C20009A4213DC41F60003C4F200039A4219D031
:101C3000002313E040F60003C4F200039A4211D0DF
:101C400040F60043C4F200030AE000BF44F2000380
:101C5000C4F201039A4205D040F20043C4F20103EA
:101C60009A4204D149682CF0800319439160012104
:101C7000002280F83D1080F83C20BDE8104010465E
:101C800070470000002804BF0120704710B50446CB
:101C900090F83D0028B9002084F83C00204600F070
:101CA0001FF8022084F83D002068211D01F0E6FBAA
:101CB000012084F8460084F83E0084F83F0084F850
:101CC000400084F8410084F8420084F8430084F81E
:101CD000440084F8450084F83D00002010BD000059
:101CE0007047000090F83C30012B04BF0220704781
:101CF0004FEAB202032A29D8F0B5DFE802F0032D3B
:101D00004B6B00BF0368D1E900C5D1F80CE01A6A3B
:101D100041F2FF7722F001021A621A4652F8186F58
:101D20001C6AC4F20007BB427ADC40F2FF77C4F2BF
:101D30000007BB4200F38280B3F1804F00F0968031
:101D400040F20047C4F200078EE000BF01210022EC
:101D500080F83C20084670470368D1E900E6D1E9E5
:101D600002C11A6A360222F010021A621A4652F8AA
:101D7000184F4FF2FF071D6ABE4324F4734461F30A
:101D80000F3646EA040125F0A0040EF00A0744EAE3
:101D900007173CE00768D1E900C5D1E902313A6A8A
:101DA00061F3071522F480723A623A4652F81C4FEA
:101DB0003E6A24F0F30445EA040126F420660CF0A0
:101DC0000A0546EA052611603E62116821F00C0101
:101DD00011605CE00368D1E900E6D1E902C11A6A4A
:101DE000360222F480521A621A4652F81C4F4FF201
:101DF000FF071D6ABE4324F4734461F30F3646EABD
:101E0000040125F420440EF00A0744EA0737116064
:101E10001F6211684FEA0C2321F44061116036E023
:101E200040F2FF37C4F20107BB4213DC41F6000762
:101E3000C4F20007BB4219D0002713E040F60007A8
:101E4000C4F20007BB4211D040F60047C4F20007BD
:101E50000AE000BF44F20007C4F20107BB4205D00C
:101E600040F20047C4F20107BB421BD126F0030633
:101E7000354324F00A070CF00A066EF307153744C1
:101E80009D611F629F6927F00C079F618B68116835
:101E9000194311600021BDE8F040002280F83C2089
:101EA0000846704746F00105E3E70000002804BF3C
:101EB0000120704710B5044690F83D0028B9002075
:101EC00084F83C00204600F01FF8022084F83D0012
:101ED0002068211D01F0D2FA012084F8460084F820
:101EE0003E0084F83F0084F8400084F8410084F804
:101EF000420084F8430084F8440084F8450084F8E4
:101F00003D00002010BD00007047000061B10829AD
:101F100016D0042919BF00F1410200F1450300F178
:101F20003F0200F143030FE090F83E2090F842306A
:101F3000012A4FF0010208BF012B17D0104670474D
:101F400000F1400200F1440312781B78012A4FF09F
:101F5000010208BF012BF1D1022208290CD004296B
:101F600010D180F83F2080F843200FE0022280F853
:101F70003E2080F8422009E080F8402080F844208C
:101F800004E000BF80F8412080F84520006801F09F
:101F90001F010122036A02FA01F123EA010202622F
:101FA000026A114341F2FF72C4F2000290420162E0
:101FB0000EDC40F2FF71C4F20001884216DCB0F181
:101FC000804F2BD040F20041C4F2000124E000BF5A
:101FD00040F2FF31C4F20101884213DC41F60001F6
:101FE000C4F20001884219D0002113E040F600013C
:101FF000C4F20001884211D040F60041C4F2000151
:102000000AE000BF44F20001C4F20101884205D099
:1020100040F20041C4F20101884204D1816801F01C
:102020000701062903D0016841F001010160002287
:102030001046704790F83C30012B04BF02207047D7
:102040004FEAB202032A00F2C980F0B5DFE802F0DD
:1020500002326698026840F20045136A42F48064D6
:1020600023F001031362136AD2F804E0D2F818C017
:102070008E6823F00203C4F20105AC4243EA060372
:1020800005D1CE6823F00C0326F0040633430E6816
:10209000AC4206D1D1E905472EF44075254345EA07
:1020A000070E2CF073073743C2F804E097614968C4
:1020B00051638AE0026840F20045136A42F480648A
:1020C00023F010031362136AD2F804E0D2F818C0A8
:1020D0008E6823F02003C4F20105AC4243EA0613E4
:1020E00007D1CE686FF0400723F0C00307EA061659
:1020F00033430E68AC4206D1D1E905452EF4406762
:10210000254347EA850E2CF4E64747EA0627C2F83E
:1021100004E097614968916357E000BF026840F2AC
:102120000045136A42F4806423F480731362136AD7
:10213000D2F804E0D2F81CC08E6823F40073C4F215
:102140000105AC4243EA062307D1CE6840F2FF47BF
:10215000360223F44063BE4333430E68AC4206D1DB
:10216000D1E905452EF44057254347EA051E2CF0DA
:1021700073073743C2F804E0D7614968D16324E0AC
:10218000026840F20047136A42F4806623F48053E9
:102190001362D2F820E05368D4690D68D1F808C002
:1021A000C4F20107BE4204D14E6923F4804343EADE
:1021B000861324F4E64646EA05265360D66149684C
:1021C0002EF4005747EA0C33116400211362BDE876
:1021D000F040002280F83C20084670470121002290
:1021E00080F83C2008467047002804BF0120704753
:1021F00010B5044690F83D0028B9002084F83C0052
:10220000204600F01FF8022084F83D002068211DC0
:1022100001F034F9012084F8460084F83E0084F887
:102220003F0084F8400084F8410084F8420084F8BC
:10223000430084F8440084F8450084F83D00002001
:1022400010BD00007047000041B1082910D00429DA
:1022500014BF00F1410200F13F020BE090F83E2074
:10226000012A1CBF01207047022280F83E2013E0A3
:1022700000F140021278012A1CBF0120704702229F
:10228000082907D0042914BF80F8412080F83F2096
:1022900002E000BF80F84020006801F01F01012229
:1022A000036A02FA01F123EA01020262026A11439F
:1022B00041F2FF72C4F200029042016210DC40F26F
:1022C000FF71C4F2000188421CDCB0F1804F3FD0A6
:1022D00040F20041C4F20001884239D03DE000BF25
:1022E00040F2FF31C4F20101884219DC41F60001DD
:1022F000C4F2000188422BD00021C4F201018842BF
:102300001AD02AE040F60001C4F2000188421FD032
:1023100040F60041C4F20001884219D01DE000BF20
:1023200044F20001C4F20101884211D040F20041A0
:10233000C4F20101884210D1416C40F2004340F4E4
:102340008062C4F2010341F400419A42416404D125
:10235000816801F00701062903D0016841F00101FD
:102360000160002070470000002804BF0120704772
:10237000B0B5044690F83D000D4628B9002084F819
:102380003C00204600F01EF8022084F83D00206842
:10239000211D01F073F82068016821F00801016037
:1023A000016829430160012084F8460084F83E005A
:1023B00084F83F0084F8420084F8430084F83D002C
:1023C0000020B0BD7047000090F83C30012B04BFE6
:1023D000022070474FEAB202032A00F201812DE980
:1023E000F043DFE802F0033F7FBF00BF036840F225
:1023F00000461A6A43F4806522F001021A621C6AE0
:102400001A46D3F804C052F818EF8F6824F002047B
:10241000C4F20106B54244EA070405D1CF6824F0AE
:102420000C0427F004073C430F68B54206D1D1E9FC
:1024300005582CF440762E4346EA080C2EF073061D
:102440003743C3F804C09F614F6809695F631C622A
:102450009F6947F008079F619F6927F004079F6104
:10246000B2E000BF036840F200481A6A43F4806596
:1024700022F010021A621C6A1A46D3F804C052F8FD
:1024800018EF8F6824F02004C4F20108454544EA9F
:10249000071407D1CF686FF0400624F0C00406EAA5
:1024A00007163443D1F80090454506D1D1E90556C9
:1024B0002CF440672E4347EA860C2EF4E64747EAA1
:1024C0000927C3F804C09F614F6809699F631C62B4
:1024D0009F6947F400679F619F6927F480679F6148
:1024E00071E000BF036840F200481A6A43F4806557
:1024F00022F480721A621C6A1A46D3F804C052F899
:102500001CEF8F6824F40074C4F20108454544EAC6
:10251000072408D1CF6840F2FF463F0224F440640C
:1025200027EA06063443D1F80090454506D1D1E9A3
:1025300005562CF440572E4347EA061C2EF073072D
:1025400047EA0907C3F804C0DF614F680969DF6320
:102550001C62DF6947F00807DF61DF6927F00407C5
:10256000DF6131E0036840F200451A6A43F4806796
:1025700022F480521A621A46D3F820C05C6852F8DE
:102580001CEFD1F800808E68C4F20105AF4204D17F
:102590004D6924F4804444EA85142CF4005747EA3A
:1025A00006372EF4E64646EA08265C60DE614E6891
:1025B00009691E641F62DF6947F40067DF61DF6934
:1025C00027F48067DF610902136819431160002155
:1025D000BDE8F043002280F83C200846704700BF69
:1025E0000121002280F83C2008467047002804BFE3
:1025F0000120704710B5044690F83D0028B900202E
:1026000084F83C00204600F01FF8022084F83D00CA
:102610002068211D00F032FF012084F8460084F874
:102620003E0084F83F0084F8400084F8410084F8BC
:10263000420084F8430084F8440084F8450084F89C
:102640003D00002010BD00007047000041B1082986
:1026500010D0042914BF00F1410200F13F020BE049
:1026600090F83E20012A1CBF01207047022280F80A
:102670003E2013E000F140021278012A1CBF012025
:1026800070470222082907D0042914BF80F841208E
:1026900080F83F2002E000BF80F84020006801F091
:1026A0001F010122036A02FA01F123EA0102026218
:1026B000026A114341F2FF72C4F2000290420162C9
:1026C00010DC40F2FF71C4F2000188421CDCB0F162
:1026D000804F3FD040F20041C4F20001884239D01F
:1026E0003DE000BF40F2FF31C4F20101884219DC35
:1026F00041F60001C4F2000188422BD00021C4F24F
:10270000010188421AD02AE040F60001C4F200011B
:1027100088421FD040F60041C4F20001884219D01F
:102720001DE000BF44F20001C4F20101884211D053
:1027300040F20041C4F20101884210D1416C40F2E4
:10274000004340F48062C4F2010341F400419A4224
:10275000416404D1816801F00701062903D00168B2
:1027600041F001010160002070470000B0B504464F
:1027700090F83C0001284FF0020008BFB0BD0125D1
:1027800084F83C5084F83D00204600F015FF0028F6
:102790004FF0010006D0002184F83D5084F83C1031
:1027A000B0BD00BF2068C16821F04001C160C168B0
:1027B00021F48041C1600020002184F83D5084F85C
:1027C0003C10B0BD002804BF0120704710B504467E
:1027D00090F83D0028B9002084F83C00204600F025
:1027E00021F8242084F83D002068C16821F40051BC
:1027F000C160204600F05EFF2068016921F490412D
:102800000161416921F02A014161C16841F400512F
:10281000C16000202021206484F83D1084F83E101F
:1028200010BD0000016841F20000C4F201008142C5
:1028300018BF704780B586B0002143F63002019181
:10284000C4F20202536900F5744043F0100353616F
:10285000536903F010030193019B0191136843F046
:1028600002031360126802F002020192019AC02270
:1028700001920222CDE90221032104910721059151
:1028800001A9FEF70FFD06B0BDE8804070470000CB
:102890002DE9F04381B0044690F83D0020280DD189
:1028A0000F4600294FF0010000F0DD801646002A97
:1028B00000F0D98094F83C00012803D1022001B037
:1028C000BDE8F083012084F83C0000202064212032
:1028D0001D4684F83D00FEF7BBFDA684E684A16892
:1028E0000646B1F5805F03D12069002800F0108111
:1028F000B8460027002084F83C00E18C20680029BD
:1029000000F0908005F101090DE000BFB8F1000F63
:1029100028D018F8011B4160E18C0139E184E18C79
:10292000002900F07F8001680906EFD4B9F1000F9B
:102930000AD0FDB1FEF78CFD801BA8421AD8206892
:1029400001680906F6D5E1E701680906DED40168E9
:1029500009065CBF01685FEA0161D7D40168090616
:10296000F2D5D3E737F8021B4FF000086FF35F2171
:10297000D1E700BF206850E8030F216820F4D07031
:1029800041E80302BAB3206850E8030F216820F43D
:10299000D07041E8030272B3206850E8030F216849
:1029A00020F4D07041E803022AB3206850E8030FF6
:1029B000216820F4D07041E80302002ADAD11AE03D
:1029C000206850E8050F216820F0010041E8050269
:1029D000DAB1206850E8050F216820F0010041E8D5
:1029E000050292B1206850E8050F216820F001002F
:1029F00041E805024AB1206850E8050F216820F03F
:102A0000010041E80502002ADAD1202084F83D00C7
:102A100084F83E00002084F83C00032001B0BDE8AB
:102A2000F08300BF0168490619D4FDB1691C0DD1BE
:102A30000168490613D4016849065CBF01685FEA72
:102A400041610CD401684906F2D508E0FEF700FDAB
:102A5000801BA8420AD8206800684006F6D52020CE
:102A600084F83D00002001B0BDE8F083206850E804
:102A7000030F216820F4D07041E80302E2B320681C
:102A800050E8030F216820F4D07041E803029AB3A4
:102A9000206850E8030F216820F4D07041E8030259
:102AA00052B3206850E8030F216820F4D07041E849
:102AB0000302002ADAD11FE0206850E8050F2168E0
:102AC00020F0010041E80502002A9ED0206850E86D
:102AD000050F216820F0010041E80502002A3FF4BB
:102AE00094AF206850E8050F216820F0010041E80C
:102AF0000502002A3FF489AF206850E8050F2168DD
:102B000020F0010041E80502002AD5D17DE700BF91
:102B10004FF00008EEE60000FEE7000010B584B0BC
:102B200040F2C840C2F2000042F2000C4FF0805464
:102B30004FF050620021C4F2010C4FF48033C0E921
:102B40000A2401240391017680F82010C46180F8E2
:102B50003040C0E900C3C0E90211C0E90414FDF728
:102B6000BBFF002818BFFDF769FE0820CDE900046F
:102B7000029440F2C844C2F2000469462046FDF7C0
:102B800065FE002818BFFDF759FE2068816841F0F6
:102B90000101816004B010BD10B582B0002043F681
:102BA00030010190C4F202010A6840F2105442F46C
:102BB00080020A600968C2F2000401F480010191F8
:102BC000019946F21041C4F202014FF48062C4E957
:102BD000001004F110014FF400634FF4005C4FF457
:102BE000807E81E80C504FF40031C4E90200C4E952
:102BF00008102046FEF752FA002818BFFDF71EFE07
:102C000040F2C840C2F200008463A0633820002173
:102C10000022FEF79FFC3820FEF78AFC206801683E
:102C200041F010010160016841F00101016002B052
:102C300010BD000010B586B0002043F630010190B1
:102C4000C4F202010A6841F2004442F004020A6040
:102C50000A68C4F2020402F004020192019A01908F
:102C60000A6842F080020A600A6802F0800201925B
:102C7000019A01900A6842F002020A600A6802F0B2
:102C800002020192019A01900A6842F001020A6070
:102C90000A6802F001020192019A01900A6842F06A
:102CA00020020A60096801F02001019101994FF4A6
:102CB0006041019101210590CDE90210049001A924
:102CC0002046FEF7EFFA20464FF400510122FEF7AE
:102CD000B9FB20464FF480410122FEF7B3FB2046AA
:102CE0004FF400410022FEF7ADFB06B010BD00001E
:102CF000F0B597B0002543F630000595C4F2020008
:102D0000416940F2D86441F0020141614169C2F277
:102D1000000401F00201059105990595016840F252
:102D2000004641F0040101600068C4F2010600F0B1
:102D300004000590059840F24F10FF218027C4E958
:102D400002502046C4E90065C4E90451A761FEF7BA
:102D500099FF1697202715A920461597FEF734FFEF
:102D60000620CDE9100710A92046CDE9125514958B
:102D7000FFF7FCFC03270CA9204600220F950C95B9
:102D80000D97FEF7AFFF20460021FFF7BFF8702038
:102D900005900420099040F21F10069020460795E8
:102DA000FFF722FA05A920460022FFF743F9204643
:102DB0000821FFF7D9FA20460021FFF747FC402001
:102DC00000900220CDE90105CDE9030706F5823028
:102DD0006946FEF767FA2068016841F00101016069
:102DE00017B0F0BD80B582B0002143F644000191D8
:102DF000C4F20200026841F6000342F010020260D1
:102E0000006841F2000200F010000190019840F2C9
:102E10006870C2F20000C4F20102C0F215034FF064
:102E20000C0CC0E90023C0E90211C0E9041CC0E990
:102E30000611FFF7C7FC002818BFFDF7FFFC40F2A2
:102E40006870C2F20000FFF7BDFC38B106A0FDF7C4
:102E50001BFB02B0BDE88040FDF7F0BC08A002B04B
:102E6000BDE88040FDF710BB555341525431204915
:102E70006E6974204661696C6564210D0000000074
:102E800055534152543120496E6974205375636320
:102E9000657373210D000000FEE70000FEE70000EF
:102EA0007047000070470000FEF7D8BAB0B592B086
:102EB000002443F64000CDE90A44CDE908440594D6
:102EC000CDE90344CDE901440094C4F20200016855
:102ED000022541F080510160006800F080500090B0
:102EE000009847F200000094C4F20000016841F429
:102EF000804101600068A82100F4804000900098A3
:102F0000012006904FF4803007904FF480000D9020
:102F100004200E90119006A80C95CDE90F15FEF730
:102F200065FC28B1EFF3108072B600BFFEE700BF6A
:102F30000F20CDE901054FF4A05004904FF48050CC
:102F4000059001A805210394FEF740FB20B1EFF3A3
:102F5000108072B6FEE700BF12B0B0BD4EF68850CA
:102F6000CEF20000016841F470010160704700007A
:102F700070B58EB0002543F630000595C4F202000E
:102F8000416940F2705441F00101416141690026FC
:102F900001F001010591059905950168C2F200044F
:102FA00041F0100101600068C4F2010600F0100059
:102FB00005900598A72044F61F61C4E900602046EB
:102FC000C4E90251C4E90455A561FEF75BFE802007
:102FD0000D9020200C900CA92046FEF7F5FD6020F6
:102FE000059040F2E730CDE9060505A92046082204
:102FF0000995FFF7E9F92046FFF7F8FA204608217E
:10300000FFF724FB4FF4005000900220CDE90105AA
:10301000032003900120049006F588306946FEF7EE
:1030200041F90EB070BD000070B598B0002543F6B0
:1030300030000695C4F20200016940F2B85441F034
:10304000010101610169C2F2000401F00101069170
:10305000069906950168392241F001010160006876
:10306000532100F00100069006984FF0804084E85C
:103070002300802017902020169016A92046C4E92E
:103080000325C4E90555FEF79FFD0620CDE911058E
:1030900011A92046CDE913551595FFF767FB0320CD
:1030A0000E90204610950D95FEF700FF0DA92046C5
:1030B0000822FEF717FE20460821FEF727FF7020A2
:1030C00006901A2004260790204608950A96FFF7D6
:1030D0008BF806A920460822FEF7ACFF20460821FF
:1030E000FFF7B2F820460821FFF73EF90220CDE9AC
:1030F00002050490012005900020C4F2020001A9FD
:103100000196FEF7CFF82068016841F001010160E7
:1031100018B070BD70B598B0002543F63000069524
:10312000C4F20200016940F2006441F00201016151
:10313000016940F2004601F00201069106990695E8
:103140000168C2F2000441F0010101600068C4F2AC
:10315000000600F00100069006981420C4E9006003
:103160008020072117902020C4E90251169016A94B
:103170002046C4E90455A561FEF726FD06201190FE
:103180003020CDE9120511A92046CDE91455FFF7ED
:10319000EDFA03200E90204610950D95FEF786FE61
:1031A0000DA920460022FEF79DFD20460021FEF7D6
:1031B000ADFE7020069004200A90079020460895E6
:1031C000FFF712F806A920460022FEF733FF20463B
:1031D0000021FFF739F820460821FFF7C5F8402005
:1031E00001900220CDE90205CDE9040006F5FE308C
:1031F00001A9FEF757F82068016841F0010101605C
:1032000018B070BD70B598B0002543F63000069533
:10321000C4F20200016940F2486441F00401016116
:10322000016940F6000601F0040106910699069531
:103230000168C2F2000441F0080101600068C4F2B4
:10324000000600F00800069006985320C4E90060CC
:103250008020632117902020C4E90251169016A9FE
:103260002046C4E90455A561FEF7AEFC0620119086
:103270001020CDE9120511A92046CDE91455FFF71C
:1032800075FA03200E90204610950D95FEF70EFE60
:103290000DA920460022FEF725FD20460021FEF75D
:1032A00035FE7020069044200790204608950A9528
:1032B000FEF79AFF06A920460022FEF7BBFE204635
:1032C0000021FEF7C1FF20460821FFF74DF84FF41B
:1032D000805001900220CDE90205CDE9040006F5F9
:1032E000013001A9FDF7DEFF2068016841F001010E
:1032F000016018B070BD0000F0B597B0002543F62E
:1033000030000595C4F20200016940F2906441F07A
:1033100008010161016940F6004601F008010591CC
:10332000059905950168C2F2000441F001010160B0
:103330000068C4F2000600F00100059005985320D3
:103340006321C4E900608020C4E90251169020275F
:1033500015A92046C4E90455A5611597FEF734FC6C
:103360000620CDE9100710A92046CDE91255149585
:10337000FFF7FCF903200D9020460F950C95FEF702
:1033800095FD0CA920460422FEF7ACFC2046042142
:10339000FEF7BCFD7020059044200690204607955E
:1033A0000995FEF721FF05A920460422FEF742FEFB
:1033B00020460421FEF748FF20460821FEF7D4FFEF
:1033C0000220CDE90000CDE90250049006F5FA3064
:1033D0006946FDF767FF2068016841F0010101605F
:1033E00017B0F0BDF0B58DB0002543F6300006955E
:1033F000C4F20200416940F2207441F4803141611D
:10340000416944F2000601F480310691069906955F
:103410000168C2F2000441F0010101600068C4F2D9
:10342000010600F001000690069853200127C4E928
:1034300000602046C4E90257C4E90455A561FEF7BF
:1034400021FC6020CDE9060706A920460422089544
:103450000A95FEF7B9FF20460421FFF7F7F8082088
:1034600001900220CDE9020504900320059006F5A5
:10347000404001A9FDF716FF0DB0F0BD10B540F6B4
:10348000FF3E0368C4F2000E40F2004C7045C4F2E7
:10349000010C27DCB0F1804F31D040F20042C4F281
:1034A000000290422BD040F60002C4F2000290428B
:1034B00025D041F6FF72C4F20002904229DC70452B
:1034C0003CDCB0F1804F5FD040F20042C4F2000219
:1034D000904259D040F60002C4F20002904253D00C
:1034E00056E000BF40F60042C4F20002904206D00F
:1034F000604504D00022C4F201029042D9D14A684A
:1035000023F07003134341F6FF72C4F200029042AD
:10351000D5DD43F6FF72C4F20102904222DC42F292
:103520000002C4F2000290422ED00022C4F2010236
:10353000904229D0604527D02AE000BF40F60042E3
:10354000C4F2000290421FD041F60002C4F2000211
:10355000904219D041F60042C4F20002904213D0CA
:1035600016E000BF44F20002C4F2010290420BD008
:1035700044F60002C4F20102904205D044F2004237
:10358000C4F20102904203D1CA6823F4407313438A
:1035900023F080024B69D1F800E08C681A43026086
:1035A000C46240F48062C0F828E0624504BF096943
:1035B00001630121416110BD80B5D0F800E0DEF863
:1035C0000800D1E900C320F0770023F00702104380
:1035D0004FEA331340EA0C00072BCEF808000CD852
:1035E0000020DFE803F005050505070D274100BFB2
:1035F00080BD00BFBCF1050F46D1012080BD00BFDA
:1036000088680969DEF82020DEF8203022F00A02FE
:1036100023F00103CEF82030DEF81830104323F0F9
:10362000F00343EA0111CEF81810CEF82000002074
:1036300080BD00BF88680969DEF8202022F01002F2
:10364000CEF82020DEF81820DEF8203022F4704278
:1036500042EA013123F0A00242EA0010CEF818102D
:10366000CEF82000002080BDD1E902020969DEF811
:103670000830104323F47F4340EA01201843CEF87A
:103680000800002080BD00BFDEF82000DEF820200A
:1036900022F00102CEF82020DEF81820096922F07D
:1036A000F00242EA0111CEF81810CEF820000020F6
:1036B00080BD000010B504460068D4E902C2236949
:1036C000016921F4405111430161626943EA0C012F
:1036D000E3691143C268194349F20C639A431143E9
:1036E000C1604169A26921F4407141F20043114374
:1036F00040F48062C4F201039A42416102D1FEF7B4
:103700002BF801E0FEF714F8E16963681922B1F5BE
:10371000004FA0FB020123D15A00DB0FFCF7BFFDD5
:1037200048F21F51C5F2EB11A0FB01235A094FF6D5
:103730009C73C0F6FF7303F1805302FB0300322336
:1037400003EBC000A0FB01014FF4F87000EA111078
:1037500000EB0210C1F3421108442168886010BDDB
:103760009A009B0FFCF79BFD48F21F51C5F2EB112D
:10377000A0FB01235A094FF69C73C0F6FF7302FBAE
:103780000300322303EB0010A0FB0101F02000EA4C
:10379000511000EB0210C1F3431108442168886006
:1037A00010BD0000FEE700007047000010B582B0B9
:1037B00004468DF8070040F26870C2F200000DF177
:1037C000070101224FF0FF33FFF762F8204602B0F5
:1037D00010BD0000FDF750FEFFF768FBFFF72AFA67
:1037E000FFF7DAF9FFF79AF9FFF782FAFFF7FAFA2B
:1037F000FFF7F8FDFFF7BCFBFFF716FCFFF78AFCAD
:10380000FFF700FDFFF778FD40F2C840C2F200006C
:10381000FDF746FA20B1EFF3108072B6FEE700BF65
:1038200040F2C40440F2C840C2F20004C2F20000F8
:1038300021464FF48072FDF7E1FA28B1EFF31080D2
:1038400072B600BFFEE700BF40F2C4459FED218A7B
:103850009FED219A40F2C847C2F200050FF25C08C2
:103860000FF264094FF0000AC2F2000708E000BF3F
:1038700085F800A0384621464FF48072FDF7BEFA65
:1038800028780128F6D129784046FCF781FD484682
:10389000FCF7FAFD6FF00306A01990ED010A042071
:1038A000B8EE400A20EE080A80EE090A00F016F889
:1038B0000436B6F57F7FEFD1DAE700BF466C61676B
:1038C000203D2025640D0A005445535420434841AF
:1038D00052200D003333534000F07F4570B582B065
:1038E0000446AA208DF80300BB208DF8020040F2A8
:1038F0006870C2F200000DF1030101224FF0FF33A6
:103900008DED010AFEF7C4FF8CB1651C40F26874AE
:1039100001AEC2F2000400BF7019811E20460122D0
:103920004FF0FF33FEF7B4FF013D012DF4D840F214
:103930006870C2F200000DF1020101224FF0FF3366
:10394000FEF7A6FF02B070BDF1EE100A4FF6FF7150
:10395000C0F2C03120EA010040F04070E1EE100AF0
:103960007047000000000000000001020304060789
:1039700008090000000001020304000610160006FA
:103980001016544349463A2025640D0A004645491D
:10399000463A2025640D0A00444D4549463A202503
:1039A000640D0A00544549463A2025640D0A004832
:1039B0005449463A2025640D0A000D0A444D412021
:1039C000466C616773205374617475733A0D00001F
:1039D000F03900080000002010000000EC01000891
:1039E000003A000810000020A00D00000C020008A2
:1039F0000100000001000000100000000024F4009D
:040000050800018965
:00000001FF
